:020000040800F2
:10000000701E0020050100087B1100086710000821
:1000100079110008C7010008ED1500080000000074
:10002000000000000000000000000000851500082E
:10003000E1010008000000008D1400088715000889
:100040001F0100081F0100081F0100081F01000810
:100050001F0100081F0100081F0100081F01000800
:100060001F0100081F0100081F0100081F010008F0
:100070001F0100081F010008C9010008D501000880
:100080001F0100081F0100081F0100081F010008D0
:100090001F0100081F0100081F0100081F010008C0
:1000A0001F0100081F0100081F0100081F010008B0
:1000B0001F0100081F0100081F0100081F010008A0
:1000C0001F0100081F0100081F0100081F01000890
:1000D000911400081F0100081F0100081F010008FB
:1000E0001F0100081F0100081F010008DFF810D0E1
:1000F00000F02CF8004800472D160008AFF30080F0
:10010000701E00200648804706480047FEE7FEE7CD
:10011000FEE7FEE7FEE7FEE7FEE7FEE7FEE7FEE7B7
:10012000EB150008ED000008D2B201E000F8012B49
:10013000491EFBD270470022F6E710B513460A4667
:1001400004461946FFF7F0FF204610BD064C074D48
:1001500006E0E06840F0010394E807009847103497
:10016000AC42F6D3FFF7C6FF641E0008841E0008E9
:1001700070B58C1810F8015B15F0070301D110F869
:10018000013B2A1106D110F8012B03E010F8016B96
:1001900001F8016B5B1EF9D12B0705D40023521E19
:1001A0000DD401F8013BFAE710F8013BCB1A921C81
:1001B00003E013F8015B01F8015B521EF9D5A1427F
:1001C000D8D3002070BDFEE7014800F059B8000008
:1001D000E8190020014800F053B800002C1A002054
:1001E000704772B6FEE7000010B590F821100024A9
:1001F000022903D00421816301243DE001680A68DB
:1002000022F00E020A6001680A6822F001020A6008
:100210001A4A0168914201D1012121E0174A1432A2
:10022000914201D110211BE0144A2832914201D1A0
:10023000891515E0114A3C32914201D189140FE031
:100240000E4A5032914202D14FF4803108E00B4AFD
:100250006432914202D14FF4801101E04FF080717D
:10026000064A083A5160012180F82110002180F8E7
:100270002010416B01B18847204610BD08000240A4
:100280002DE9F05FC16B0C6801680B68D0F840C0C5
:10029000042202FA0CF2494DDFF824A1494E4A4FDC
:1002A000DFF828B1DFF828E122422CD05A072AD5FE
:1002B0000A68920603D40A6822F004020A60016800
:1002C000A94201D1042219E0514501D1402215E093
:1002D000B14202D14FF4806210E0B94202D14FF432
:1002E00080420BE0594502D14FF4802206E071456F
:1002F00002D14FF4800201E04FF080622F490839AB
:100300004A60C16A3BE04FF0020808FA0CF818EAAC
:10031000040F4FF000094FF0010235D05FEA8378F7
:1003200032D50B689B0605D40B6823F00A030B60DB
:1003300080F821200168A94201D1022219E051452B
:1003400001D1202215E0B14202D14FF4007210E039
:10035000B94202D14FF400520BE0594502D14FF49B
:10036000003206E0714502D14FF4001201E04FF077
:100370000072124908394A6080F82090816A002989
:100380001AD0BDE8F05F0847082505FA0CF52542AC
:1003900012D01B0710D50B6823F00E030B6090F8EA
:1003A0004010C36B02FA01F15960826380F821208A
:1003B00080F82090016BE2E7BDE8F09F0800024062
:1003C0001C0002403000024044000240580002403D
:1003D0006C00024030B528B308C8134914221944F0
:1003E000B1FBF2F18900C1631049816302214177B9
:1003F0001A6843F6F0718A43D0E900142143D0E92A
:1004000002452C4321430469214344692143846903
:100410002143114319600021416301224277017792
:10042000084630BD012030BDF8FFFDBF000002408E
:1004300070B5044600F004F90546601C02D004487B
:100440000078044400F0FCF8401BA042FAD370BDD1
:10045000001800202DE9F84FDFF8B891002409F1C9
:10046000040A0AF1040B23460F270BF1040EC9E01E
:100470000125A5402A40AA427DD1674ED1F804C08B
:10048000ACEB0608B44532D014DCBCF1030F3AD013
:1004900009DCBCF1000F2AD0BCF1010F1CD0BCF16B
:1004A000020F31D11DE0BCF1110F17D0BCF1120FBA
:1004B0002AD119E0B8F5881F19D006DCB8F5803FBD
:1004C00015D0B8F5801F1FD111E0B8F5001F0ED070
:1004D000B8F5041F18D10AE0CB6815E0CB681B1DE6
:1004E00012E0CB6808330FE0CB680C330CE08B686C
:1004F0002BB1012B4FF0080303D0456104E0042326
:1005000002E0056100E00023FF2A01D8064601E071
:1005100000F104064FEA840501D9A5F12005D6F8BB
:10052000008007FA05FC28EA0C0803FA05F548EAFA
:100530000508C6F800804D68ED0062D5374DAE69FC
:1005400046F00106AE61AD6924F0030605F0010531
:100550000095334D06EB050CDCF80850A607360F66
:1005600007FA06F825EA0805DFF8B880404503D108
:100570004FF0000817E044E0DFF8AC80404502D1BE
:100580004FF001080FE0DFF8A480404502D14FF0A2
:10059000020808E0DFF89880404502D14FF00308D8
:1005A00001E04FF0040808FA06F848EA0508CCF81C
:1005B00008804D68D9F80060ED034D4601D516431B
:1005C00000E096432E604D68DAF80060AD035546B2
:1005D00001D5164300E096432E604D68DBF80060BD
:1005E000ED025D4601D5164300E096432E604D684E
:1005F000DEF80060AD02754601D5164300E0964373
:100600002E60641C0D682A46E5407FF431AFBDE8DA
:10061000F88F00000004014000001110001002409B
:100620000000014000080140000C014000100140A2
:10063000001401400AB1016170470904FBE70000A2
:100640000148806870470000001800200248816857
:10065000027811448160704700180020074810B5E7
:10066000016841F010010160032000F079F80020DA
:1006700000F006F800F024F8002010BD0020024031
:1006800070B50D4D04464FF47A712878B1FBF0F047
:100690000A490968B1FBF0F000F0D1FC48B9102C10
:1006A00007D200222146501E00F03AF800206C606C
:1006B00070BD012070BD0000001800200C18002043
:1006C0000E4808B5816941F001018161816901F03D
:1006D00001010091C16941F08051C161C06900F020
:1006E00080500090052000F03BF80548416821F05B
:1006F000E06141F00071416008BD0000001002405F
:1007000000000140002809DB00F01F020121914098
:100710004009800000F1E020C0F80011704700009F
:10072000F0B40E4B1B680C46C3F30223C3F107055C
:10073000042D00D90425191D072901D2002300E04A
:10074000DB1E012606FA05F1491E214099409E4014
:10075000761E16403143F0BC00F049BF0CED00E0BE
:10076000064900F0070208684FF6FF03184040EA08
:100770000220034A10430860704700000CED00E0BF
:100780000000FA05704700002DE9F0470F4605000C
:1007900061D0434E306800F00700B84209D230689B
:1007A00020F0070038433060306800F00700B8429E
:1007B00051D128683B4C810712D5400703D56068AA
:1007C00040F4E06060602878000703D5606840F47A
:1007D000605060606068A96820F0F00008436060C5
:1007E0002878C00728D06868012810D0216802281E
:1007F00010D0890700292EDA616821F00301014336
:100800006160FFF71DFF804641F288390DE02168E5
:100810008903EFE78901EDE7FFF712FFA0EB08017D
:10082000494502D90320BDE8F0876068696800F097
:100830000C00B0EB810FEFD1306800F00700B84238
:100840000BD9306820F0070038433060306800F082
:100850000700B84201D00120E5E72878400705D518
:100860006068E96820F4E060084360602878000769
:1008700006D56068296920F4605040EAC1006060D4
:1008800000F01EF86168084AC1F30311515CC840CA
:100890000649086006480068FFF7F2FE0020C2E73C
:1008A0000020024000100240641800080C180020CC
:1008B0000418002001490120C8647047000042422A
:1008C00012A185B00FC98DE80F0014A0144A00686A
:1008D00004905168134801F00C03042B10D0082B2E
:1008E0000ED1C1F38343C9031DF803000AD5516833
:1008F00004AAC1F34041515C0A4A5043B0FBF1F0F5
:1009000005B0704708494843FAE7000002030405B0
:10091000060708090A0B0C0D0E0F1010010200004B
:100920000010024000127A0000093D0010B5044C8E
:10093000A068000603D5FFF725FF8020A07210BD38
:10094000001002402DE9F84F040070D02078C04D0F
:10095000C00749D06868C0F38100012807D06868E3
:10096000C0F38100022809D16868C00306D5286851
:10097000800339D560680028E7D035E06068B0F5BD
:10098000803F0BD010B1B0F5A02F11D0286820F413
:1009900080302860286820F4802002E0286840F435
:1009A00080302860606890B1FFF74AFE06460AE092
:1009B000286840F480202860F0E700BFFFF740FE81
:1009C000801B642873D828688003F7D50CE0FFF7F4
:1009D00037FE064605E000BFFFF732FE801B6428A5
:1009E000F0D828688003F7D420789A4E80074FF01B
:1009F00001094FF0000839D5686810F00C0F07D0D6
:100A00006868C0F38100022809D16868C00306D471
:100A10002868800714D52069012808D110E02069D2
:100A2000B0B1C6F80090FFF70BFE074605E00AE1FB
:100A3000FFF706FEC01B0228C4D828688007F7D538
:100A40002868616920F0F80040EAC10028600DE0E4
:100A5000C6F80080FFF7F4FD074604E0FFF7F0FD5D
:100A6000C01B022823D828688007F7D42078000705
:100A70002CD57948A169D9B1C0F80090FFF7E0FD05
:100A8000074604E0FFF7DCFDC01B02280FD8686AA8
:100A90008007F7D571484FF4FA510068B0FBF1F0C8
:100AA000009000BF0098411E0091FAD20EE080E055
:100AB000C0F80080FFF7C4FD074604E0FFF7C0FD63
:100AC000C01B022875D8686A8007F7D420784007D1
:100AD00060D5E8690027C00008D4E86940F080507C
:100AE000E861E869012700F0805000905C480168E7
:100AF000C90513D40168834641F480710160FFF792
:100B00009FFD824606E000BFFFF79AFDA0EB0A00BA
:100B100064284ED8DBF80000C005F5D5E068012850
:100B20000AD008B1052813D0286A20F001002862F5
:100B3000286A20F0040002E0286A40F001002862E0
:100B4000E06841F2883B98B1FFF77AFD82460BE0FE
:100B5000286A40F004002862EEE700BFFFF770FD4E
:100B6000A0EB0A0159455AD8286A8007F6D50CE04F
:100B7000FFF766FD824605E0FFF762FDA0EB0A0184
:100B800059454CD8286A8007F6D41FB1E86920F08F
:100B90008050E861E06988B36968C1F38101022986
:100BA00044D00228C6F8608004D0FFF749FD04460F
:100BB00038E034E0FFF744FD074604E0FFF740FD6E
:100BC000C01B02282BD828688001F7D4206AB0F512
:100BD000803F05D16868A16820F400300843686050
:100BE000D4E908010843696821F474110843686076
:100BF000C6F86090FFF724FD044606E025E000BF3C
:100C0000FFF71EFD001B022809D828688001F7D5D0
:100C10001BE000BFFFF714FD001B022802D90320D0
:100C2000BDE8F88F28688001F4D40EE00128F7D0E1
:100C30006868226A00F48031914204D1616A00F44C
:100C40007010884201D00120EAE70020E8E70000A8
:100C50000010024000004242800442420C18002072
:100C6000007000407047000038B5044600684268D4
:100C70008168C9434B0606D5CB0704D1D3435B0635
:100C800001D4216C05E08B0708D4D3431B0605D49F
:100C9000616C01B02046BDE8304008478B0601D5A5
:100CA0004B0646D4D3439B0643D44B060AD494F850
:100CB0005130032B3ED0636D43F004036365C3687A
:100CC00083680093890609D4616D41F00101616573
:100CD00081680091016821F040010160606D002889
:100CE00027D02068416821F0E0014160012084F8AC
:100CF0005100900722D02068416821F00301416033
:100D0000104DE06C40B14563E06CFFF76DFA18B12F
:100D1000606D40F040006065A06C002809D045631C
:100D2000A06CFFF761FA002803D0606D40F040002E
:100D3000606538BDC1688068009038BD2046FFF707
:100D400091FF38BD9D14000870B5040009D0606A99
:100D5000002540B125616561A56294F8510040B15C
:100D60000CE0012070BD6068B0F5827FF4D0E561D1
:100D7000F2E784F85050204600F040F8022084F852
:100D800051002068016821F040010160A08821899C
:100D900000F4827001F404410843A18901F4006168
:100DA0000843217C01F002010843217D01F001018B
:100DB0000843218B01F400710843217F01F03801C1
:100DC000084394F8201001F080010843218D01F4BC
:100DD0000051084321680860A069042101EA10401D
:100DE000216848602068C16921F40061C1616565BE
:100DF000012084F85100002070BD0000F0B585B0DE
:100E000000240646009401940294039400682D493E
:100E1000884255D12C48C16941F48041C161C16902
:100E200001F480410491816941F008018161806988
:100E3000264D00F0080004904FF42040009002205E
:100E400001900320039069462846FFF703FB4FF407
:100E50008040CDE90004694628460294FFF7FAFA7B
:100E60001C4D1B488027C5E90004C5E902472C61D9
:100E70006C61AC612846EC61FFF7ACFA08B1FFF792
:100E8000B0F9F5646E62134D11484435143001C554
:100E9000102091C50F4845F8104944306C61AC6191
:100EA000EC61FFF797FA08B1FFF79BF9B5640022F0
:100EB000114624206E62FFF733FC2420FFF722FC4A
:100EC00005B0F0BD0038004000100240000C0140A9
:100ED00044000240E81900202DE9F84F044690F83C
:100EE000500000271D461646894601280DD04FF0B8
:100EF000010B84F850B0FFF7A3FB804694F8510033
:100F0000BA46012804D0022793E00220BDE8F88FFA
:100F1000B9F1000F73D0002E71D0032084F8510076
:100F2000C4F854A0C4F83090A686E686C4F838A069
:100F3000A4F83CA0A4F83EA0C4F844A0C4F840A083
:100F4000A068B0F5004F09D12068016821F0400188
:100F500001602068016841F48041016020680168F7
:100F6000490603D4016841F040010160E068B0F532
:100F7000006F606803D030B3012E24D041E008B187
:100F8000012E1CD1206B21680088C86006E0206813
:100F90008168890709D5216B0988C160206B801C95
:100FA0002063E08E401EE08609E0FFF749FBA0EBDE
:100FB0000800A84202D3681C01D031E07DB3E08E66
:100FC0000028E4D120E0206B21680078087306E057
:100FD00020688168890709D5216B09780173206B26
:100FE000401C2063E08E401EE0860AE0FFF728FBED
:100FF000A0EB0800A84203D3681C02D010E017E061
:101000006DB1E08E0028E3D142462946204600F02B
:101010004DFA08B120206065A06818B106E0FFE72E
:10102000032706E02068C16880680090606D00B109
:10103000012784F851B084F850A0384666E710B50F
:10104000401EB0F1807F01D3012010BD4FF0E0249D
:1010500060610F21601700F0CAFA0020A06107202C
:101060002061002010BDFEE70D4808B5416941F040
:10107000010141614069002200F001000090114629
:101080000E20FFF74DFB0E20FFF73CFB0022114620
:101090000F20FFF745FBBDE808400F20FFF732BBEC
:1010A0000010024030B585B000241F480094019420
:1010B00002940394816941F010018161816901F01A
:1010C00010010491816941F020018161816901F081
:1010D00020010491816941F008018161816901F079
:1010E00008010491816941F00401816180690F4D1B
:1010F00000F004000490002240F202412846FFF76D
:1011000099FA012211032846FFF794FA41F20240AE
:1011100000900120CDE90104032003906946284690
:10112000FFF798F905B030BD00100240000C0140F7
:10113000104810B50E4901604FF4827141600021E2
:1011400002228160C0E90312012242615202C0E919
:1011500006210162416281620A21C162FFF7F4FD4A
:10116000002803D0BDE81040FFF73BB810BD0000D9
:101170000038004090190020FEE7FFF7D7FBFEE79C
:1011800070B5002404F1B000C0B2002100F058F99D
:101190000021084600F054F90021102000F050F919
:1011A00000250121002000F04BF96D1CEDB2802DCF
:1011B000F7D3641CE4B2082CE4D370BD2DE9F047EA
:1011C00098461746824600260C46DDF8209011E02E
:1011D0002146504600F0A8F8554607E019F80600E9
:1011E0000121761C00F02CF96D1CEDB2BD42F5D347
:1011F000641CE4B24445EBD3BDE8F08770B501222E
:10120000484D940221462846FFF714FA6420FFF760
:101210000FF9002221462846FFF70CFA6420FFF759
:1012200007F9012221462846FFF704FA0021AE20E3
:1012300000F006F90021084600F002F90021102014
:1012400000F0FEF80021402000F0FAF80021812093
:1012500000F0F6F80021CF2000F0F2F80021A120E4
:1012600000F0EEF80021C82000F0EAF80021A620E6
:1012700000F0E6F80021A82000F0E2F800213F206D
:1012800000F0DEF80021D32000F0DAF80021084653
:1012900000F0D6F80021D52000F0D2F800218020FF
:1012A00000F0CEF80021D92000F0CAF80021F1208A
:1012B00000F0C6F80021DA2000F0C2F80021122068
:1012C00000F0BEF80021DB2000F0BAF80021402039
:1012D00000F0B6F80021202000F0B2F80021022032
:1012E00000F0AEF800218D2000F0AAF800211420B3
:1012F00000F0A6F80021A42000F0A2F80021A6200A
:1013000000F09EF80021AF2000F09AF80021AF20F5
:1013100000F096F8FFF734FFBDE870400021084662
:1013200000F002B8000C014010B50446B031C8B25C
:10133000002100F085F8102040EA1410002100F090
:101340007FF804F00F00BDE8104040F001000021DC
:1013500000F076B82DE9F04116460D4607460629FD
:101360001DD8FFF7E1FF0F48002400EB861601218E
:10137000305D00F065F8641CE4B2102CF7D36D1CEE
:10138000E9B23846FFF7D0FF00243019012190F868
:10139000200000F055F8641CE4B2102CF5D3BDE831
:1013A000F0810000101800202DE9F041203A0024BF
:1013B0000D468046D7B27F2803D900208D1C804679
:1013C000EDB22946FFF7B0FF0F4E00BF04EB071048
:1013D0000121305C00F034F8641CE4B2082CF5D331
:1013E0006D1CE9B24046FFF79FFF002404EB071095
:1013F00030440121007A00F023F8641CE4B2082C88
:10140000F4D3BDE8F0810000741800082DE9F04124
:1014100017460E46044600250CE031462046FFF7ED
:10142000C3FF0834E4B2782C02D90024B61CF6B20B
:101430006D1CEDB27A5D002AEFD1BDE8F0810000AD
:1014400073B5104C09B1012200E0002202212046B0
:10145000FFF7F0F84FF48055002229462046FFF7A9
:10146000E9F86423012269460748FFF735FD0122A8
:1014700029462046FFF7DEF8012202212046FFF729
:10148000D9F87CBD000C0140901900207047000085
:101490000148FFF7E9BB00009019002010B5406A31
:1014A0000021C187C186FFF7DDFB10BD38B50B46B3
:1014B000009204460022802100F008F8002804D0A1
:1014C000606D40F020006065032038BD2DE9F843D1
:1014D0001E46914688460446089DFFF7B1F8401B1A
:1014E000351AFFF7ADF8074625480068C0F3CB3042
:1014F000684338E0701C37D0FFF7A2F8C01BA84241
:1015000003D215B1009860B32CE02068416821F047
:10151000E00141606068B0F5827F0BD1A068B0F552
:10152000004F02D0B0F5806F04D12068016821F02F
:1015300040010160A06AB0F5005F09D12068016830
:1015400021F4005101602068016841F400510160FC
:10155000012084F85100002084F850000320BDE8E9
:10156000F8830025401E00902068816838EA010059
:1015700004D000214945BDD10020F0E70121F9E761
:101580000C1800207047FFF761B830B58FB02821E4
:101590006846FEF7D0FD14210AA8FEF7CCFD012114
:1015A0000804CDE900100024029402250491CDE93D
:1015B00007504FF4E01009906846FFF7C3F908B1EF
:1015C00072B6FEE70F20CDE90A054FF48060CDE941
:1015D0000C4002210AA80E94FFF7D6F808B172B6A3
:1015E000FEE7FFF767F90FB030BD7047FEE7090768
:1015F000090E002804DB00F1E02080F80014704799
:1016000000F00F0000F1E02080F8141D704702E0A8
:1016100008C8121F08C1002AFAD17047704700207D
:1016200001E001C1121F002AFBD1704708B5FFF786
:1016300015F8FFF7AAFFFFF735FDFFF715FDFFF7D8
:1016400077FDFFF7DBFDFFF79BFD814D4FF4FA645B
:1016500005F5806605F5006705F5406805F58059D4
:1016600005F5A05A00217BA20846FFF7CFFE2046D1
:10167000FEF7DEFEFFF784FD002211461046FFF75D
:1016800069FE012200211220FFF764FE02220021E0
:101690002420FFF75FFE032200213620FFF75AFEC9
:1016A000042200214820FFF755FE052200215A2080
:1016B000FFF750FE002202211046FFF74BFE0122E9
:1016C00002211220FFF746FE022211462420FFF7D6
:1016D00041FE032202213620FFF73CFE04220221B4
:1016E0004820FFF737FE052202215A20FFF732FE7D
:1016F000002204211046FFF72DFE012204211220B2
:10170000FFF728FE022204212420FFF723FE0322F4
:1017100004213620FFF71EFE042211464820FFF761
:1017200019FE052204215A20FFF714FE002206218B
:101730001046FFF70FFE012206211220FFF70AFED6
:10174000022206212420FFF705FE0322062136206F
:10175000FFF700FE042206214820FFF7FBFD0522CB
:1017600006215A20FFF7F6FD2046FEF761FEFFF73F
:1017700007FD002205211046FFF7ECFD012205219F
:101780001220FFF7E7FD022205212420FFF7E2FDEA
:10179000032205213620FFF7DDFD04220521482024
:1017A000FFF7D8FD052211465A20FFF7D3FD20464A
:1017B000FEF73EFEFFF7E4FC0021082380220846E6
:1017C0000095FFF7FBFC2046FEF732FEFFF7D8FC42
:1017D00000210823802208460096FFF7EFFC2046F0
:1017E000FEF726FEFFF7CCFC0021082380220846E6
:1017F0000097FFF7E3FC2046FEF71AFEFFF7C0FC58
:101800000021082380220846CDF80080FFF7D6FC8F
:101810002046FEF70DFEFFF7B3FC002108238022CF
:101820000846CDF80090FFF7C9FC2046FEF700FE01
:10183000FFF7A6FC0021082380220846CDF800A06F
:10184000FFF7BCFC2046FEF7F3FDFFF799FC09E724
:101850000000002048656C6C6F20776F726C64210B
:10186000000000000000000000000000010203046E
:10187000060708090000000000000000000000004A
:1018800000000000000000F800000000000000332D
:101890003000000000100C06100C060000000000D4
:1018A0000000000040C07840C0784000043F0404BD
:1018B0003F040400007088FC08300000001820FF7E
:1018C000211E0000F008F000E018000000211C03B9
:1018D0001E211E0000F00888700000001E21232435
:1018E0001927211010160E00000000000000000053
:1018F00000000000000000E01804020000000007E3
:101900001820400000020418E000000000402018E9
:1019100007000000404080F0804040000202010FBC
:1019200001020200000000F0000000000101011FA0
:1019300001010100000000000000000080B0700004
:101940000000000000000000000000000001010194
:101950000101010100000000000000000030300023
:1019600000000000000000008060180400601806FD
:101970000100000000E010080810E000000F102037
:1019800020100F00001010F8000000000020203F81
:10199000202000000070080808887000003028240B
:1019A00022213000003008888848300000182020AC
:1019B00020110E000000C02010F8000000070424D1
:1019C000243F240000F80888880808000019212016
:1019D00020110E0000E0108888180000000F112070
:1019E00020110E0000380808C83808000000003F29
:1019F000000000000070880808887000001C222188
:101A000021221C0000E010080810E0000000312234
:101A100022110F00000000C0C000000000000030D4
:101A20003000000000000080000000000000806026
:101A300000000000000080402010080000010204A7
:101A4000081020004040404040404000040404048E
:101A5000040404000008102040800000002010084A
:101A600004020100007048080808F000000000307F
:101A700036010000C030C828E810E000071827240D
:101A800023140B000000C038E0000000203C2302BB
:101A90000227382008F8888888700000203F20201E
:101AA00020110E00C0300808080838000718202050
:101AB0002010080008F808080810E000203F202047
:101AC00020100F0008F88888E8081000203F202028
:101AD0002320180008F88888E8081000203F20001C
:101AE00003000000C0300808083800000718202054
:101AF000221E020008F808000008F808203F210113
:101B000001213F20000808F8080800000020203FBD
:101B10002020000000000808F8080800C08080802D
:101B20007F00000008F888C028180800203F200126
:101B30002638200008F8080000000000203F202080
:101B40002020300008F8F800F8F80800203F003F97
:101B5000003F200008F830C00008F808203F2000AF
:101B600007183F00E01008080810E0000F102020C0
:101B700020100F0008F808080808F000203F210195
:101B800001010000E01008080810E0000F182424EC
:101B900038504F0008F8888888887000203F20005F
:101BA000030C302000708808080838000038202115
:101BB00021221C00180808F8080818000000203F1F
:101BC0002000000008F808000008F808001F202086
:101BD00020201F000878880000C838080000073857
:101BE0000E010000F80800F80008F800033C0700A8
:101BF000073C0300081868808068180820302C0310
:101C0000032C30200838C800C83808000000203FE6
:101C10002000000010080808C838080020382621D5
:101C200020201800000000FE020202000000007FD9
:101C300040404000000C30C00000000000000001E7
:101C40000638C00000020202FE00000000404040D2
:101C50007F000000000004020202040000000000F7
:101C60000000000000000000000000008080808074
:101C7000808080800002020400000000000000005C
:101C800000000000000080808080000000192422F5
:101C900022223F2008F8008080000000003F112031
:101CA00020110E000000008080800000000E112036
:101CB00020201100000000808088F800000E112014
:101CC00020103F200000808080800000001F222222
:101CD00022221300008080F0888888180020203F8E
:101CE000202000000000808080808000006B9494A1
:101CF0009493600008F8008080800000203F21005D
:101D000000203F2000809898000000000020203F25
:101D100020200000000000809898000000C0808013
:101D2000807F000008F8000080808000203F2402AF
:101D30002D302000000808F8000000000020203F9F
:101D4000202000008080808080808000203F200054
:101D50003F20003F8080008080800000203F2100E5
:101D600000203F200000808080800000001F202095
:101D700020201F00808000808000000080FFA120C4
:101D800020110E000000008080808000000E1120D5
:101D900020A0FF80808080008080800020203F2164
:101DA0002000010000008080808080000033242417
:101DB00024241900008080E0808000000000001FC3
:101DC000202000008080000000808000001F202074
:101DD00020103F20808080000080808000010E3035
:101DE0000806010080800080008080800F300C0396
:101DF0000C300F0000808000808080000020312E99
:101E00000E312000808080000080808080818E7074
:101E10001806010000808080808080000021302C26
:101E20002221300000000000807C0202000000003F
:101E3000003F404000000000FF00000000000000E4
:101E4000FF0000000002027C800000000040403FD4
:101E5000000000000006010102020404000000006E
:101E600000000000841E00080000002090190000FF
:101E700070010008D825000890190020E004000037
:101E80001E16000811100A03050911FF118905C368
:101E900012E012F072F8073D4428FF11AA44700BBB
:101EA0008301384482929274018328087C44FF01A4
:101EB0007D7D7D044905647D01FF9A0102818A01CF
:101EC0000B013669419949FA0101011D38083F3F6C
:101ED0000303F31311011E01F1116181312D8161A1
:101EE00011F1393B4141072C01C1211EAB21C11425
:101EF000390139360738D33303033F3F23E0E06A23
:101F00007FA81A7FBF4C0618060A213640407F4042
:101F1000401C1F204001AB201F14113A600E6C3092
:101F20000C034601361C07070601780904040484E3
:101F300044444484071C0484C405790E09110A79B9
:101F4000112940034107072610181412112E0F10F3
:101F500010100F0F331F1026081012120D22186BCD
:101F60000D120A5929590701605A8001013D2008C4
:101F70007F030C300C037F2538545458257C04040F
:101F80007805223C40407C17FFAAAAAA28080A2C00
:101F9000FF681E2649494932101D020408100F101F
:101FA0000A03050911FF118905C312E012F072F846
:101FB000073D4428FF11AA44700B830138448292E4
:101FC000927401831E7C44FF017D01990559BB9ADF
:101FD0000102818A010B013669419949FA01010127
:101FE000204BF808011135F818608035806018F82A
:101FF0002B202006312BE0101EAB10E01461393786
:10200000043E8868186A7FA71A7FBE4C0618060A25
:10201000114640407F40401C1F204001AB201F1450
:102020001162603A602F01441E40202020C0ED194B
:102030000729EA2A4005115A600E8918792959079B
:102040000149260C0A0A090C360F0808080F2C084B
:102050000F08151D0809090E0719181C0909091888
:10206000190A5929590701605A8001013D20087F4A
:10207000030C300C037F2538545458257C04047815
:1020800005223C40407C17FFAAAAAA28080A2CFF78
:10209000681E2649494932101D020408100FD9D381
:1020A0005CC0E0F001092117C129221DF8F8F8FCF5
:1020B000049EF8F0E0C0803A29172AFC199918010B
:1020C000141808FCFEFFFFFF7F3F052901910A1449
:1020D000FE17B97D4AFC1D5E3F1F0F0F1F2932F806
:1020E0005AF80C1917B91801163507070301E969E1
:1020F00009151729E9290141591C491D990D09168E
:1021000018011D091527E91719D339010976804BE4
:10211000E0F001410A717F804B1F3F01410A7107C6
:1021200080D14A3F1D1BFCF801490B337F0F4B0F39
:102130007F0D29175AFC180220074A0F010925179D
:10214000811C0103071E1A1F018F0F0F07070301D0
:1021500017191829174918011416C0C0C080801B10
:10216000808008190A215909B913390A1913691D00
:10217000B913490A31390A7913290909170AD9BE4D
:102180003C070707B329B039BD3A0113390AB9131F
:10219000490A39135D018080010A191C7C03070E6E
:1021A0000A290919015913C90A4A0F0A013A29C310
:1021B000000F421C3EBCC0E0E0EFEFE0E0C0B83EE4
:1021C0003E00101DFEFCFC8C8C8CACECEC8C9C9CC2
:1021D0009CFCFC9F0707CFF8FEFF0157FEF8CF0FCE
:1021E0000707100BC0F0F878383838F8F0C06C806A
:1021F000E0F00B1117E0F03838F0E01A80B4190164
:102200001BC0C0C2E11946200DBBFBFBF9FFFFFB61
:10221000FBBB3BFFFF193A3E383818181808490134
:10222000697EAC07071F7E29013D3F06070F812409
:102230000707031680E0F87F1F200B87CFFFFC788D
:102240007078FFDF8F1B01033636FDFF3F0301E689
:102250000101070706180980FFFF07383F3F3101DA
:102260001B3F3F8D011D1A0F6B4814C3E7EF1F3F43
:102270003FBFBF3F3F1FCFEFC301070F0F0E4960A6
:1022800016E0F0FCDFCFC7C1C0C0C07FFFF1C08047
:1022900080C0E1FF7F1E1D1F7FFEE0121914E4F0D5
:1022A000F07039B76129AA39CB011D3A03CA2B0F47
:1022B0000FCF7A033C19DB8901391A1928292979AA
:1022C000202912493C019F480880C0E0F0F0F078D6
:1022D00001190A54E0C0805DF0F8F8F8167901623F
:1022E0003039323BF0F82D390C4AF80C4939012EBF
:1022F000B67EFFFFFF811A811042FF29081B80C0B4
:1023000060390119096A805F2B1F3F1C0910010306
:10231000333F1F2816C0F1F3FF7F3F3E1E1E1C1CDB
:102320001C1E1E3E3F7FFFF3F1E06A5809070F0FA6
:102330000F0703030101700803073FFFFEFCC019EC
:102340000F001235070F1F1F3F3F7F7F7F3F1F1F6B
:102350000F070703011A7FB86AC0D9411B80C0125A
:10236000227FAD70F0F0E0191C80C0F018420F78A9
:102370000BF8F8F8606060E0C0E0E0074904013560
:1023800039CB2C0F0F0E0129F319F4F919491869EB
:10239000E2190E38080C0C0C0F073F3F071A0F9577
:1023A000690401426EC0E070F0E0F8680980E0F86E
:1023B000380C1C78F010391F953870F0C08B80C035
:1023C0000C093F7B2EC0703C1F07E11BFFF87256C3
:1023D00080F0FC1F033C031FFE8336C0F87F0F0113
:1023E0002D010F7FF877691001515E010F3F703E9C
:1023F0007D619E073F7C783F6D2F030F3E707C3FD1
:10240000AD01561816808080C0C060603030101852
:10241000181808080C0C0C0808080B180B181030BA
:10242000302020606040C0220151180BC0E03018FD
:102430000C060203030101111982091A64080B46F4
:1024400001010303060C0C18F0E0891CFCFF03FAE1
:10245000780BC0C0C0E0F0F0F8FCFEFF014AFE01BE
:10246000DAFC013BF8F0B50347FF3F280F031F7C60
:10247000E09F6FFFFFF7FFFF1F1F1F791EF7FFEFA2
:102480005FBF082CBF5FEF161DFFBF1F1F0F00119E
:102490004CF7F7FF6F9FFFFFDFDFFFC8E0F8CE8745
:1024A000017F01071F3F7F7FFA3CBFBE3F017BBF1B
:1024B000BE1329011EFEFE7F7F3FA405550F0F07A7
:1024C000031C010103014A07011A0F67690129175B
:1024D0000A4A01F2771C7EFEFE9C98000C144848C4
:1024E00048C89898103060C08020125858C8ECEC4A
:1024F000FEB8B0B0B0B8FEECECEC48489A40132AF5
:10250000EE130A3140ED19EA100B0E0E0C1C1C1EC6
:102510001E3E1C082401070E0414070F0438091F6F
:102520003F343434373737060B1538181309136521
:102530003182101324F40010138080EE888888E81C
:102540008F088878484E40C0167F2424247F0808CE
:10255000158140300F304180550417E21CE0378070
:102560004020100C030E10030C304080402C101043
:10257000900178081010FF101011169AA118082069
:1025800060203F101010400D10102040F8601D8298
:102590008282FE0449060911A01A80B9510217FF70
:1025A0001F181610D0B897840B1192947F11080D44
:1025B0001120108C838041462810284443C0114FBD
:1025C000FE0222428272050213FE2FFF100806014E
:0825D0000E0504124E807F008D
:04000005080000ED02
:00000001FF
